:040000008A15002835
:0E000600F201F101F001F801F30100300800F1
:10001400083083120313FC002330FD00FD0B10286D
:06002400FC0B102808008F
:04002A0000000800CA
:10002E00103083120313FD00FD0B1B280000080087
:08003E00FA1FF2130030080064
:10004600FB14FB1F2D28FF30F300F200F100F00037
:08005600FA0DF20CFF30080066
:10005E007B15FB1F39280130F300F201F101F0018D
:08006E00FA0DF20CFF3008004E
:10007600A0017208031D50287108F2007008F100F3
:10008600F001A0157208031D50287108F200F10155
:10009600A0112016720803195E282008F302031D1A
:1000A600031C62280310F21B6628F00DF10DF20DF9
:1000B600F30B562862280130FC0003206928023021
:0E00C600FC002F2069280430FC001F200800D9
:1000D40083120313EE1B70288612712886166E1B7A
:1000E4007528061276280616EE1A7A2886117B28B9
:1000F40086156E1A7F280611802806154A1884284A
:10010400061485280610861415208610EE198C28EE
:1001140086128D2886166E199128061292280616C4
:10012400EE1896288611972886156E189B280611B6
:100134009C2806154A18A0280614A128061086141F
:10014400152086104A1CA8280A20A9281720080070
:1001540083120313F801F9011030FC00710DF80D3E
:10016400F90D7408F8027508031C750FF9020318D9
:10017400C2287408F80775080318750FF9070310E7
:0A018400F00DF10DFC0BB02808008F
:10018E007C18FD28FC18CE287C191C29C728A00134
:10019E007208031DEE287108F2007008F10078084D
:1001AE00F000F801A0157208031DEE287108F20088
:1001BE007008F100F001A01120167208031DEE2840
:1001CE007108F200F101A015720803191029200818
:1001DE00F302031D031C14290310F21BFD28F80D56
:1001EE00F00DF10DF20DF30BF42814297B1B701C8E
:1001FE001829F81F1829F00A0319F10A0319F20A2F
:10020E00031D1829F20CF10CF00CF30A03191C292A
:10021E0018290130FC0003201F290230FC002F207A
:10022E001F290430FC001F201F290830FC0023204A
:04023E0000000800B4
:0E0242008312031333088A003208820008007A
:1002500083120313EC0105306C02031836296C0875
:100260006B07840020308000EC0A2B296C086B0798
:1002700084008001EC036C086B07ED000A30F40089
:10028000F5016908F0006A08F100AA207808F0007A
:100290007908F1003030F0076D08840070088000A4
:1002A0000A30F400F5016908F0006A08F100AA209C
:1002B0007008E9007108EA0000307106031D622928
:1002C00000307006031D65296729EC033B290800EF
:0E02D000073083120313FD00FD0B6C2908009C
:1002DE008312031372087606A000F801F901730861
:1002EE007702031C92297708FD007308F7007D083A
:1002FE00F3007608FD007208F6007D08F20075081E
:10030E00FD007108F5007D08F1007408FD0070080D
:10031E00F4007D08F000770803190B2A7208FA0022
:10032E00F217F61777087302F7000319C52908307C
:10033E007702031CBB29F7007408F9007508F40056
:10034E007608F500F60108307702031CBB29F7008A
:10035E007408F9007508F400F50108307702031CE3
:10036E00BB297A08F2000B2A77080319C529031056
:10037E00F60CF50CF40CF90CF70BBE29A01FD229C4
:10038E00F909F409F509F609F90A0319F40A03192A
:10039E00F50A0319F60A7908F80774080318740F9A
:1003AE00F00775080318750FF10776080318760F16
:1003BE00F207A01BEB29031CFB29F20CF10CF00C2D
:1003CE00F80CF30FFB29072A0318FF29F809F00987
:1003DE00F109F209F80A0319F00A0319F10A0319CF
:1003EE00F20A8030FA06032A0130FC00C7200D2ADB
:1003FE000230FC00C7200D2A0430FC003B200D2AE1
:10040E000830FC0023200D2A0030FC0000000800FC
:10041E007B14FB1F1A2AF201FA1FFF30F200F100C3
:0A042E00F000FA0DF20CFF30080098
:10043800831603139818222A00001C2A83126908BD
:04044800990008000F
:06044C00FB15FF30080063
:10045200831203134A106908EE006A204A14080046
:1004620083120313E201600884000008E1006108BE
:10047200003A0319462A6108E9001C22E20A6208CE
:0C048200600784000008E100382A080030
:10048E0083120313FB017308031D770803199E2AB9
:10049E0072087606FA007708F3077E30031C5B2A93
:1004AE00F3020318A12A5E2AF302031CA42A72087F
:1004BE00F8007108FC007008FD00F817F61703101D
:1004CE00F201F101F0011830A0007D1C782A7408A9
:1004DE00F00775080318750FF10776080318760FE5
:1004EE00F207F20CF10CF00CF80CFC0CFD0C0310E6
:1004FE00A00B6C2AF21B882AF80DF00DF10DF20DEF
:10050E00F3037B1B701C9A2AF81F9A2AF00A031910
:10051E00F10A0319F20A031D9A2AF20CF10CF00CDF
:10052E00F30A0319A12AFA1FF2130030A62A01308A
:10053E000320A62A02302320A62A04302F200000F2
:02054E000800A3
:1005500083120313FB01FC01FA0173080319E72A54
:10056000F2178E30F302F31BB82A0319B82AEA2ACD
:10057000F309F30A08307302031CCD2AF300F10DCE
:100580007208F100F20108307302031CCD2AF10D4C
:10059000F1017308031D0310D52A73080319D52A26
:1005A0000310F20CF10CF30BD02A7B1B711CDF2A19
:1005B000031CDF2AF10A0319F20AF21BF62AFA1FBA
:1005C000F92AF209F109F10A0319F20AF92AF201EA
:1005D000F101F92A7B14FB1FFC2AF201FA1FFC2A05
:1005E000FF30F200F100FA0DF20CFC2A0130FC00A1
:1005F000FE2A0030FC00FE2AFF30FC00FC08031934
:0E060000022B0F227108F0007208F1000800B2
:10060E000D3083120313E9001C220A30E9001C226C
:10061E008230FC00DD30FD00FD0B132BFC0B132B89
:06062E00000000000800BE
:10063400831203137008F8007108F000F101F2014D
:10064400F301FB01FC019630F300FA017008F1009C
:0C0654007808F000F801F2013B200800DB
:0C066000831203138030F6066F2108009F
:10066C00831203139F01C0309F0483161F179F171B
:10067C0083126008F000F00D7010F00D7010F00D8A
:10068C00701070089F041F1468211F151F1D502B1C
:10069C0000004C2B1F101E08F100F00183161E08E1
:0806AC00F0040030F104080025
:1006B400FF3083120313CB00FF30CC00FF30CD009A
:1006C400FF309F01C0309F0483161F179F178312AA
:0406D4001F140800E7
:1006D800831203137008F8007108F0007208F10023
:1006E8007308F200F301FB01FC019E30F300FA01EC
:0806F8000230FC00C7200800DD
:10070000922B803083120313E000A52BC030E00051
:10071000A52B9430E000A52BD430E000A52B803031
:10072000E000A52B831203136008013A0319812B03
:100730006008023A0319862B6008033A0319892BD3
:100740006008043A03198C2B8F2B6103F0006008BA
:10075000F0077008E0007008EE006A204A10E3011C
:1007600063086207840000080319BE2B6308620750
:1007700084000008E9002922E30AB02B4A1408008B
:1007800083160313981690308312980083168717E8
:10079000071383128C1ECF2B1A08F000C92B0800F8
:1007A000831203137408003A031DEB2B7508003AFB
:1007B000031DEB2B7608003A031DEB2B7708003A5C
:1007C000031DEB2BFF30F000FF30F1007F30F20013
:1007D000FF30F300080083120313770803197A2C03
:1007E000730803197D2C720876068039FA00F21717
:1007F000F617A0017208F8007108FC007008FD00EF
:100800007408FD027508031C750FFC027608031CB2
:10081000760FF802F801FC01FD01031C162C0310F1
:10082000F20CF10CF00CF80C0130A0007708F30288
:10083000031C202C7E302007F3070318802C252C66
:100840007E302007F307031C832C1830FA07FD0DB8
:10085000FC0DF80DF00DF10DF20DA00D7408F00275
:100860007508031C750FF1027608031C760FF2025F
:10087000760DA004201C3E2C7D14492C7408F00732
:1008800075080318750FF10776080318760AF20742
:100890007D10FA031F307A05031D272C7B1B7D1C5E
:1008A000702C0310F00DF10DF20DA00D7408F00284
:1008B0007508031C750FF1027608031C760FF2020F
:1008C000760D20040139FD070318FC0A0319F80A04
:1008D000031D702CF80CFC0CFD0CF30A0319802C82
:1008E000FA1FF8137808F2007C08F1007D08F00088
:1008F0000030852C01302622852C02300320852CE7
:0E09000004302320852C08302F200000080032
:10090E0083120313E501E6016008E7006108E800C1
:10091E0080306106F00080307002031D982C00308C
:10092E0060020318A62C0130E5000030E6006008D6
:10093E00003CE7006108031C013EE801E80267087D
:10094E00E9006808EA006208EB0028210630E3009F
:10095E000030E4006408003C031DB72C6308003C23
:10096E000318D22C63086207F20001306302F00014
:10097E000030031C013E6402F1007008620784001F
:10098E000008F00072088400700880000130E30255
:10099E00031CE403B12C620884002030800065083B
:1009AE0066040319F02CE301E40163086207840076
:1009BE000008203A031DE72CE30A0319E40ADC2C95
:1009CE000130E302031CE4036308620784002D3048
:0409DE00800008008D
:1009E200831603138610061006118611061286124C
:1009F20083128610061086120612861106110A202C
:100A02000A200A20861506158614152086100A204B
:100A12008614152086100A208614152086100A20B6
:100A220006118614152086100A20861415208610B9
:100A3200861186168614152086100A20861206153F
:100A420086141520861006118614152086100A2099
:100A520086141520861006158614152086100A2085
:100A6200061186141520861086160616861506159A
:0C0A72008614152086100A204A14080083
:100A7E0083120313FB01730803197C2D7208FA000D
:100A8E00F2178E30F302F31F7F2DF309F30A0830AD
:100A9E007302031C622DF300F10D7208F100F201D6
:100AAE0008307302031C622DF300F10DF10173087F
:100ABE00031D03106A2D730803196A2D0310F20C1F
:100ACE00F10CF30B652D7B1B711C742D031C742D07
:100ADE00F10A0319F20AF21B8B2DFA1F8E2DF20961
:100AEE00F109F10A0319F20A8E2DF201F1018E2D90
:100AFE007B14FB1F912DF201FA1F912DFF30F20096
:100B0E00F100FA0DF20C912D0130FC00932D003006
:100B1E00FC00932DFF30FC00FC080319972D0F22CB
:0A0B2E007108F0007208F1000800E1
:100B380021218A110A128000840AB20A0319B30A11
:080B4800F003031D9C2D0800C1
:100B5000BA2D803083120313E000CD2DC030E000A9
:100B6000CD2D9430E000CD2DD430E000CD2D80305F
:100B7000E000CD2D831203136008013A0319A92D5B
:100B80006008023A0319AE2D6008033A0319B12D2B
:100B90006008043A0319B42DB72D6103F000600812
:100BA000F0077008E0004A147008EE006A204A104E
:0A0BB0006208EE006A204A140800F3
:10100000483083120313A1003A30A200A3016C30D0
:10101000A4003A30A500A6012030A7006C30A8003B
:10102000A9012030AA002530AB00AC012030AD0072
:101030006330AE00AF010330900019308316990081
:1010400018158A11C0238A158230FC00DD30FD009E
:10105000FD0B2828FC0B2828000000008A11F12431
:101060008A150C30EE008A116A208A150130EE00D4
:101070008A116A208A150130E0000130E100543005
:10108000E2008A11A8258A150230E0000130E10053
:101090002130E2008A1180238A150230E0000A30F4
:1010A000E1002430E2008A1180238A158A115A2334
:1010B0008A15F0308316880006138312E0018A1126
:1010C00036238A1570088312B0007108B1008A11A6
:1010D0001A238A152330F400DB30F5007930F6004E
:1010E0007D30F7008A1147228A158A11A8228A15B5
:1010F0007008B0007108B1007008E9007108EA00DA
:101100003430EB008A1128218A150130E0000C30C0
:10111000E1003430E2008A1180238A153430E00087
:101120008A1131228A152D30E0008A1131228A1568
:101130008A1107238A158E018F010630FB001330B8
:10114000FC00AD30FD00FD0BA328FC0BA328FB0B1E
:10115000A328000000000F08CE00CF01D001D1016C
:101160005008F3004F08F2004E08F100F00170083B
:10117000CE007108CF007208D0007308D1000E08AD
:10118000F0040030F104F204F3047008CE0071089A
:10119000CF007208D0007308D1008A116C238A1521
:1011A000A230F400C530F5001E30F6007B30F700A9
:1011B0008A1147228A157008F4007108F500720838
:1011C000F6007308F7006F30F0007A30F1000E304F
:1011D000F2008830F3008A1130238A157008DC0091
:1011E0007108DD007208DE007308DF008A113F25F8
:1011F0008A157008E0007108E1005230E2008A119F
:1012000087248A150230E0000330E1005230E2000A
:101210008A1180238A1506133108003C031D122908
:101220003008323C03181629880177290617083040
:1012300088008230FC00DD30FD00FD0B1D29FC0B19
:101240001D29000000000C3088008230FC00DD30D9
:10125000FD00FD0B2929FC0B2929000000000430AA
:1012600088008230FC00DD30FD00FD0B3529FC0BD1
:10127000352900000000063088008230FC00DD3097
:10128000FD00FD0B4129FC0B41290000000002304C
:1012900088008230FC00DD30FD00FD0B4D29FC0B89
:1012A0004D2900000000033088008230FC00DD3052
:1012B000FD00FD0B5929FC0B5929000000000130ED
:1012C00088008230FC00DD30FD00FD0B6529FC0B41
:1012D000652900000000093088008230FC00DD3004
:1012E000FD00FD0B7129FC0B71290000000052303C
:1012F000E0008A1131228A152A30E0008A11312259
:101300008A158A1107238A150130E0008A113623D5
:101310008A1570088312C8007108C9008A111A233F
:101320008A15E530F4006130F5002130F60079309F
:10133000F7008A1147228A150030F4000030F500CA
:101340002030F6008130F7008A11D0238A15003052
:10135000F4000030F5004830F6008530F7008A11BF
:1013600047228A158A11A8228A157008C8007108B8
:10137000C9007008E9007108EA003E30EB008A11EC
:1013800028218A150230E0000C30E1003E30E200F6
:101390008A1180238A153E30E0008A1131228A1595
:1013A0002730E0008A1131228A158A1107238A1515
:0413B0005D28D929B2
:02400E004A2F37
:00000001FF
