:02000000CE2D03
:0E000600F201F101F001F801F30100300800F1
:10001400083083120313FC002330FD00FD0B10286D
:06002400FC0B102808008F
:04002A0000000800CA
:10002E00103083120313FD00FD0B1B280000080087
:08003E00FA1FF2130030080064
:10004600FB14FB1F2D28FF30F300F200F100F00037
:08005600FA0DF20CFF30080066
:10005E007B15FB1F39280130F300F201F101F0018D
:08006E00FA0DF20CFF3008004E
:10007600A0017208031D50287108F2007008F100F3
:10008600F001A0157208031D50287108F200F10155
:10009600A0112016720803195E282008F302031D1A
:1000A600031C62280310F21B6628F00DF10DF20DF9
:1000B600F30B562862280130FC0003206928023021
:0E00C600FC002F2069280430FC001F200800D9
:1000D40083160313A41B71288312861273288312B8
:1000E40086168316241B7928831206127B28831212
:1000F40006168316A41A8128831286118328831274
:1001040086158316241A8928831206118B288312D4
:10011400061550188F2806149028061086141520EA
:1001240086108316A4199928831286129B28831299
:10013400861683162419A12883120612A328831273
:1001440006168316A418A92883128611AB288312D5
:10015400861583162418B12883120611B328831236
:1001640006155018B7280614B8280610861415204A
:0E0174008610501CBF280A20C0281720080043
:1001820083120313F801F9011030FC00710DF80D10
:10019200F90D7408F8027508031C750FF9020318AB
:1001A200D9287408F80775080318750FF9070310A2
:0A01B200F00DF10DFC0BC72808004A
:1001BC007C181429FC18E5287C193329DE28A001A9
:1001CC007208031D05297108F2007008F100780807
:1001DC00F000F801A0157208031D05297108F20042
:1001EC007008F100F001A01120167208031D0529FA
:1001FC007108F200F101A0157208031927292008D3
:10020C00F302031D031C2B290310F21B1429F80DF8
:10021C00F00DF10DF20DF30B0B292B297B1B701C30
:10022C002F29F81F2F29F00A0319F10A0319F20AD2
:10023C00031D2F29F20CF10CF00CF30A03193329CE
:10024C002F290130FC00032036290230FC002F201E
:10025C0036290430FC001F2036290830FC002320EE
:04026C000000080086
:0E0270008312031339088A0038088200080040
:10027E0083120313EF0105306F0203184F296F0825
:10028E00831622078400203080008312EF0A422951
:10029E006F0883162207840080018312EF036F0814
:1002AE0083162207A3000A30F400F5012008F0009F
:1002BE002108F100C1207808F0007908F1003030F3
:1002CE00F007831623088400700880000A30F400BB
:1002DE00F5012008F0002108F100C12070088316F6
:1002EE00A0007108A10000307106031D80290030A6
:1002FE007006031D832986298312EF0356290800F1
:0E030E00073083120313FD00FD0B8B2908003E
:10031C008312031372087606A000F801F901730822
:10032C007702031CB1297708FD007308F7007D08DC
:10033C00F3007608FD007208F6007D08F2007508DF
:10034C00FD007108F5007D08F1007408FD007008CF
:10035C00F4007D08F000770803192A2A7208FA00C5
:10036C00F217F61777087302F7000319E42908301F
:10037C007702031CDA29F7007408F9007508F400F9
:10038C007608F500F60108307702031CDA29F7002D
:10039C007408F9007508F400F50108307702031CA5
:1003AC00DA297A08F2002A2A77080319E4290310BB
:1003BC00F60CF50CF40CF90CF70BDD29A01FF12948
:1003CC00F909F409F509F609F90A0319F40A0319EC
:1003DC00F50A0319F60A7908F80774080318740F5C
:1003EC00F00775080318750FF10776080318760FD8
:1003FC00F207A01B0A2A031C1A2AF20CF10CF00CAF
:10040C00F80CF30F1A2A262A03181E2AF809F009E9
:10041C00F109F209F80A0319F00A0319F10A031990
:10042C00F20A8030FA06222A0130FC00DE202C2A47
:10043C000230FC00DE202C2A0430FC003B202C2A4D
:10044C000830FC0023202C2A0030FC00000008009F
:10045C007B14FB1F392AF201FA1FFF30F200F10066
:0A046C00F000FA0DF20CFF3008005A
:10047600831603139818412A00003B2A83126F083B
:0404860099000800D1
:06048A00FB15FF30080025
:100490008312031350106F088316A4006A205014AF
:0204A000080052
:1004A20083120313E801660884000008E700670866
:1004B200003A0319662A6708EF003B22E80A680837
:0C04C200660784000008E700582A0800C4
:1004CE0083120313FB017308031D77080319BE2A59
:1004DE0072087606FA007708F3077E30031C7B2A33
:1004EE00F3020318C12A7E2AF302031CC42A7208DF
:1004FE00F8007108FC007008FD00F817F6170310DD
:10050E00F201F101F0011830A0007D1C982A740848
:10051E00F00775080318750FF10776080318760FA4
:10052E00F207F20CF10CF00CF80CFC0CFD0C0310A5
:10053E00A00B8C2AF21BA82AF80DF00DF10DF20D6E
:10054E00F3037B1B701CBA2AF81FBA2AF00A031990
:10055E00F10A0319F20A031DBA2AF20CF10CF00C7F
:10056E00F30A0319C12AFA1FF2130030C62A01300A
:10057E000320C62A02302320C62A04302F20000072
:02058E00080063
:1005900083120313FB01FC01FA0173080319072BF3
:1005A000F2178E30F302F31BD82A0319D82A0A2B2C
:1005B000F309F30A08307302031CED2AF300F10D6E
:1005C0007208F100F20108307302031CED2AF10DEC
:1005D000F1017308031D0310F52A73080319F52AA6
:1005E0000310F20CF10CF30BF02A7B1B711CFF2A99
:1005F000031CFF2AF10A0319F20AF21B162BFA1F39
:10060000192BF209F109F10A0319F20A192BF20167
:10061000F101192B7B14FB1F1C2BF201FA1F1C2B61
:10062000FF30F200F100FA0DF20C1C2B0130FC003F
:100630001E2B0030FC001E2BFF30FC00FC080319B1
:0E064000222B2E227108F0007208F100080033
:10064E000D3083120313EF003B220A30EF003B22E2
:10065E008230FC00DD30FD00FD0B332BFC0B332B09
:06066E000000000008007E
:10067400831203137008F8007108F000F101F2010D
:10068400F301FB01FC019630F300FA017008F1005C
:0C0694007808F000F801F2013B2008009B
:0C06A000831203138030F6068E21080040
:1006AC00C330831203139F05C0309F006608F0000F
:1006BC00F00D7010F00D701070089F0483169F17CA
:1006CC0083121F1487219F149F1C6E2B00006A2B12
:1006DC001F101E08F100F00183161E08F0040030F4
:0406EC00F10408000D
:1006F000FF3083120313D100FF30D200FF30D3004C
:10070000FF30C3309F05C0309F0083169F178312B0
:040710001F140800AA
:10071400831203137408003A031DA52B7508003ACD
:10072400031DA52B7608003A031DA52B7708003A74
:10073400031DA52BFF30F000FF30F1007F30F200E5
:10074400FF30F30008008312031377080319342CD5
:1007540073080319372C720876068039FA00F217E9
:10076400F617A0017208F8007108FC007008FD007B
:100774007408FD027508031C750FFC027608031C3F
:10078400760FF802F801FC01FD01031CD02B0310C5
:10079400F20CF10CF00CF80C0130A0007708F30215
:1007A400031CDA2B7E302007F30703183A2CDF2BC7
:1007B4007E302007F307031C3D2C1830FA07FD0D8B
:1007C400FC0DF80DF00DF10DF20DA00D7408F00202
:1007D4007508031C750FF1027608031C760FF202EC
:1007E400760DA004201CF82B7D14032C7408F0074C
:1007F40075080318750FF10776080318760AF207CF
:100804007D10FA031F307A05031DE12B7B1B7D1C31
:100814002A2C0310F00DF10DF20DA00D7408F00256
:100824007508031C750FF1027608031C760FF2029B
:10083400760D20040139FD070318FC0A0319F80A90
:10084400031D2A2CF80CFC0CFD0CF30A03193A2C9A
:10085400FA1FF8137808F2007C08F1007D08F00014
:1008640000303F2C013045223F2C023003203F2C26
:0E087400043023203F2C08302F200000080005
:1008820083160313981690308312980083168717E5
:10089200071383128C1E502C1A08F0004A2C0800F1
:1008A20083120313EB01EC016608ED006708EE000A
:1008B20080306706F00080307002031D622C003029
:1008C20066020318702C0130EB000030EC00660861
:1008D200003CED006708031C013EEE01EE026D08CC
:1008E2008316A00083126E088316A1008312680883
:1008F2008316A2003F21063083120313E900003061
:10090200EA006A08003C031D882C6908003C0318B1
:10091200A32C69086807F20001306902F000003078
:10092200031C013E6A02F100700868078400000897
:10093200F00072088400700880000130E902031C94
:10094200EA03822C68088400203080006B086C0463
:100952000319C12CE901EA0169086807840000084B
:10096200203A031DB82CE90A0319EA0AAD2C01301A
:10097200E902031CEA036908680784002D3080003D
:0209820008006B
:1009840083120313FB0173080319FF2C7208FA0086
:10099400F2178E30F302F31F022DF309F30A083025
:1009A4007302031CE52CF300F10D7208F100F2014F
:1009B40008307302031CE52CF300F10DF1017308F8
:1009C400031D0310ED2C73080319ED2C0310F20C16
:1009D400F10CF30BE82C7B1B711CF72C031CF72C7C
:1009E400F10A0319F20AF21B0E2DFA1F112DF20956
:1009F400F109F10A0319F20A112DF201F101112D85
:100A04007B14FB1F142DF201FA1F142DFF30F2008A
:100A1400F100FA0DF20C142D0130FC00162D0030FB
:100A2400FC00162DFF30FC00FC0803191A2D2E22A1
:0A0A34007108F0007208F1000800DC
:100A3E0083160313861006100611861106128612EF
:100A4E0083128610061086120612861106110A20CF
:100A5E000A200A20861506158614152086100A20EF
:100A6E008614152086100A208614152086100A205A
:100A7E0006118614152086100A208614152086105D
:100A8E00861186168614152086100A2086120615E3
:100A9E0086141520861006118614152086100A203D
:100AAE0086141520861006158614152086100A2029
:100ABE00061186141520861086160616861506153E
:0C0ACE008614152086100A205014080021
:100ADA00831203137008F8007108F0007208F1001D
:100AEA007308F200F301FB01FC019E30F300FA01E6
:080AFA000230FC00DE200800C0
:100B020038218A110A128000840AB80A0319B90A24
:080B1200F003031D812D080012
:100B1A009F2D803083120313E600B22DC030E60009
:100B2A00B22D9430E600B22DD430E600B22D8030DA
:100B3A00E600B22D831203136608013A03198E2DBB
:100B4A006608023A0319932D6608033A0319962D8B
:100B5A006608043A0319992D9C2D6703F00066086C
:100B6A00F0077008E60070088316A4006A20501087
:100B7A00E90169086807840000080319CC2D69088F
:100B8A00680784000008EF004822E90ABE2D5014C5
:020B9A00080051
:100B9C00543083120313A1006530A2006D30A30002
:100BAC007030A4003A30A500A6014830A7003A30B6
:100BBC00A800A9016C30AA003A30AB00AC0120307F
:100BCC00AD006C30AE00AF012030B0002530B1006C
:100BDC00B2012030B3006330B400B5010330900093
:100BEC00193083169900181541248230FC00DD3031
:100BFC00FD00FD0BFF2DFC0BFF2D000000001F2541
:100C0C000C308316A4006A2001308316A4006A20DD
:100C1C000130E6000130E7002130E8008D2502307C
:100C2C00E6000130E7002730E8008D250230E600B1
:100C3C000A30E7002A30E8008D257823E601562398
:100C4C0070088312B6007108B7003A232330F40001
:100C5C00DB30F5007930F6007D30F7006722C822D2
:100C6C007008B6007108B70070088316A0007108F0
:100C7C00A1003A30A2003F21013083120313E60099
:100C8C000C30E7003A30E8008D253A30E60051226E
:100C9C003330E600512227238E018F010630FB00F2
:100CAC001330FC00AD30FD00FD0B5A2EFC0B5A2E00
:100CBC00FB0B5A2E000000000F08D400D501D60102
:100CCC00D7015608F3005508F2005408F100F00162
:100CDC007008D4007108D5007208D6007308D700CC
:100CEC000E08F0040030F104F204F3047008D40090
:100CFC007108D5007208D6007308D7006D25A23094
:100D0C00F400C530F5001E30F6007B30F70067228A
:100D1C007008F4007108F5007208F6007308F7000B
:100D2C006F30F0007A30F1000E30F2008830F300B2
:100D3C0050237008E2007108E3007208E4007308A5
:100D4C00E500C2247008E6007108E7005830E8009E
:100D5C0051240230E6000330E7005830E8008D25BE
:100D6C005830E60051223030E60051222723013062
:100D7C00E600562370088312CE007108CF003A2388
:100D8C00E530F4006130F5002130F6007930F700E1
:100D9C0067220030F4000030F5002030F60081307E
:100DAC00F7008A230030F4000030F5004830F600DC
:100DBC008530F7006722C8227008CE007108CF007A
:100DCC0070088316A0007108A1004430A2003F21D6
:100DDC00023083120313E6000C30E7004430E800C5
:100DEC008D254430E60051222D30E6005122272378
:040DFC00242EFF2E74
:04400E00F22F000786
:00000001FF
